:100000000C9462000C948A000C948A000C948A0070
:100010000C948A000C948A000C948A000C948A0038
:100020000C948A000C948A000C948A000C948A0028
:100030000C948A000C948A000C948A000C948A0018
:100040000C9492030C948A000C94EA010C94960090
:100050000C948A000C948A000C948A000C948A00F8
:100060000C949F040C948A000000000023002600DA
:10007000290000000000240027002A0000000000E2
:10008000250028002B0000000008000201000003EA
:10009000040700000000000000000404040404043D
:1000A0000404020202020202030303030303010227
:1000B00004081020408001020408102001020408F6
:1000C0001020860E11241FBECFEFD8E0DEBFCDBFBB
:1000D00023E0A6EEB1E001C01D92A43DB207E1F716
:1000E00011E0A0E0B1E0EAE2F3E202C005900D9277
:1000F000A63EB107D9F710E0C2E6D0E004C02197D0
:10010000FE010E948811C136D107C9F70E94680A12
:100110000C9493110C94000087EA92E00E94ED0089
:1001200021E0892B09F420E0822F08951F920F927D
:100130000FB60F9211242F933F934F935F936F93BA
:100140007F938F939F93AF93BF93EF93FF9387EA30
:1001500092E00E941C02FF91EF91BF91AF919F919D
:100160008F917F916F915F914F913F912F910F9060
:100170000FBE0F901F901895FC01538D448D252FB5
:1001800030E0842F90E0821B930B541710F0CF9631
:10019000089501970895FC01918D828D981761F063
:1001A000828DDF01A80FB11D5D968C91928D9F5FAE
:1001B0009F73928F90E008958FEF9FEF0895FC0159
:1001C000918D828D981731F0828DE80FF11D858D0C
:1001D00090E008958FEF9FEF0895FC01918D228D9F
:1001E000892F90E0805C9F4F821B91098F73992724
:1001F000089580E090E0892B29F00E948C00811105
:100200000C94000008953FB7F8948091A302909158
:10021000A402A091A502B091A60226B5A89B05C094
:100220002F3F19F00196A11DB11D3FBFBA2FA92F75
:10023000982F8827820F911DA11DB11DBC01CD01F2
:1002400042E0660F771F881F991F4A95D1F70895DE
:1002500085ED8093BC008091BC0084FDFCCF1092A2
:100260003302089540917B02262F30E0240F311D88
:1002700021323105DCF4209133022430C9F4FC0131
:1002800080E090E0861758F430917B022191DC01E8
:10029000A55ABD4FA30FB11D2C930196F3CF8091AA
:1002A0007B02680F60937B0280E0089581E00895EF
:1002B00082E00895089508950895E09135028091AF
:1002C0003402E81730F4F0E0EA5CFD4F808190E002
:1002D00008958FEF9FEF0895909135028091340239
:1002E000981750F4E92FF0E0EA5CFD4F208130E0F0
:1002F0009F5F9093350202C02FEF3FEFC901089531
:100300008091340290E020913502821B910908957A
:10031000CF92DF92EF92FF920F931F93CF93DF93D1
:100320007C01CB018A012091EA01222389F0EB01B3
:100330006B01C40ED51ECC15DD0569F06991D7019E
:10034000ED91FC910190F081E02DC7010995F3CF6B
:10035000642F0E943201C801DF91CF911F910F914C
:10036000FF90EF90DF90CF900895CF93DF931F928F
:10037000CDB7DEB769832091EA012223D1F0209125
:100380000C02203240F021E030E0FC013383228374
:1003900080E090E015C08091EB01E82FF0E0E4519F
:1003A000FE4F998190838F5F8093EB0180930C02C5
:1003B00005C061E0CE0101960E94320181E090E02B
:1003C0000F90DF91CF910895089580E090E0089517
:1003D0000E948E111F920F920FB60F9211242F932D
:1003E0008F939F93EF93FF93E091B702F091B80240
:1003F0008081E091BD02F091BE0282FD12C0908129
:100400008091C0028F5F8F732091C102821751F0DB
:10041000E091C002F0E0E955FD4F958F8093C00256
:1004200001C08081FF91EF919F918F912F910F904B
:100430000FBE0F901F901895FC01848DDF01A80F4F
:10044000B11DA35ABF4F2C91848D90E001968F73FC
:100450009927848FA689B7892C93A089B1898C911B
:10046000837080648C93938D848D981306C002886A
:10047000F389E02D80818F7D80830895EF92FF9234
:100480000F931F93CF93DF93EC0181E0888F9B8DB7
:100490008C8D981305C0E889F989808185FD26C077
:1004A000F62E0B8D10E00F5F1F4F0F731127E02EFC
:1004B0008C8DE8120CC00FB607FCFACFE889F989D9
:1004C000808185FFF5CFCE010E941C02F1CF8B8D7C
:1004D000FE01E80FF11DE35AFF4FF0829FB7F89439
:1004E0000B8FEA89FB89808180620AC09FB7F894EC
:1004F000EE89FF896083E889F9898081837080644F
:1005000080839FBF81E090E0DF91CF911F910F9199
:10051000FF90EF900895CF93DF93EC01888D8823AF
:10052000C9F0EA89FB89808185FD05C0A889B98960
:100530008C9186FD0FC00FB607FCF5CF808185FF3B
:10054000F2CFA889B9898C9185FFEDCFCE010E94A9
:100550001C02E7CFDF91CF91089590E0FC01EA57AC
:10056000FF4F2491FC01E255FF4F3491FC01E65608
:10057000FF4FE491EE2309F43CC0222339F12330EC
:1005800091F038F42130A9F0223001F584B58F7D47
:1005900012C0273091F02830A1F02430B9F48091B6
:1005A00080008F7D03C0809180008F7780938000D2
:1005B0000DC084B58F7784BD09C08091B0008F775E
:1005C00003C08091B0008F7D8093B000F0E0EE0F0B
:1005D000FF1FE458FF4FA591B4919FB7F8946111A4
:1005E00004C08C913095382302C0EC913E2B3C9393
:1005F0009FBF0895CF93DF93EC0160E08E810E944E
:10060000AD0261E08E810E94AD0260E08E810E94A9
:10061000AD028BE891E00197F1F7DF91CF9108955A
:10062000CF93DF9390E0FC01E255FF4F2491FC0152
:10063000E656FF4F8491882361F190E0880F991F5F
:10064000FC01EE58FF4FC591D491FC01E458FF4FD7
:10065000A591B491611109C09FB7F8948881209544
:1006600082238883EC912E230BC0623061F49FB704
:10067000F8948881322F309583238883EC912E2B38
:100680002C939FBF06C08FB7F894E8812E2B288348
:100690008FBFDF91CF9108958F929F92AF92BF92BB
:1006A000CF92DF92EF92FF926B017C010E940301D7
:1006B0004B015C01C114D104E104F104F1F00E948A
:1006C0000301DC01CB0188199909AA09BB09883EFD
:1006D0009340A105B10570F321E0C21AD108E108E9
:1006E000F10888EE880E83E0981EA11CB11CC1148D
:1006F000D104E104F10419F7DDCFFF90EF90DF9012
:10070000CF90BF90AF909F908F9008952FB7F8949F
:1007100060919F027091A0028091A1029091A2022B
:100720002FBF08951F920F920FB60F9211242F938F
:100730003F938F939F93AF93BF9380919F0290912C
:10074000A002A091A102B091A20230919E0223E0EA
:10075000230F2D3720F40196A11DB11D05C026E8F9
:10076000230F0296A11DB11D20939E0280939F022C
:100770009093A002A093A102B093A2028091A30241
:100780009091A402A091A502B091A6020196A11D8C
:10079000B11D8093A3029093A402A093A502B093ED
:1007A000A602BF91AF919F918F913F912F910F9092
:1007B0000FBE0F901F901895CF92DF92EF92FF928D
:1007C0001F93CF93DF93EC011F81662311F0912FCC
:1007D00001C090E0288530E0220F331F28593F4F99
:1007E000A0E0B0E0F90145915491FA0180818123A4
:1007F000AD0160E070E098130FC01196CD84DE84E7
:10080000EF84F8884C155D056E057F0558F33FEFC2
:100810002FEF8FEF9FEF03C03A2F252FCB01632FD0
:10082000722FDF91CF911F91FF90EF90DF90CF90CB
:100830000895CF92DF92EF92FF920F931F93CF9381
:10084000DF936C017C0187E0E80EF11CC0E0D0E092
:10085000062F10E0B8010C2E02C0759567950A941A
:10086000E2F76170F70181917F010E94AD0221964C
:10087000C430D10579F7C601DF91CF911F910F9157
:10088000FF90EF90DF90CF900C94FA02CF92DF921E
:10089000EF92FF920F931F93CF93DF93EC01F62E0D
:1008A000642F8C810E94AD028D818F3F19F060E032
:1008B0000E94AD028F850F2D10E084FF25C06E01D0
:1008C00087E0C80ED11CE12CF12CB8010E2C02C01F
:1008D000759567950A94E2F76170F60181916F0151
:1008E0000E94AD02FFEFEF1AFF0A88E0E816F1045C
:1008F00061F7CE01DF91CF911F910F91FF90EF90A3
:10090000DF90CF900C94FA02B80184E0759567955A
:100910008A95E1F7CE010E9419046F2DCE01DF9177
:10092000CF911F910F91FF90EF90DF90CF900C949B
:10093000190441E00E94460481E090E008951F926E
:100940000F920FB60F9211242F933F934F935F9303
:100950006F937F938F939F93AF93BF93EF93FF9387
:100960008091B900887F803609F49CC068F5883290
:1009700009F45BC090F4803109F454C038F4882342
:1009800009F4F6C0883009F44DC0F6C0883109F486
:100990004CC0803209F45DC0EFC0803409F468C0F7
:1009A00048F4803309F455C0883309F0E5C08093DA
:1009B0003102D8C0803509F44FC0883509F45DC0D4
:1009C000883409F0D9C0D6C0883909F4C7C0A8F462
:1009D000883709F467C038F4883609F463C0803773
:1009E00009F460C0C9C0883809F4B8C0803909F476
:1009F0005FC0803809F0C0C05BC0803B09F486C08E
:100A000038F4803A09F466C0883A09F47FC0B4C06B
:100A1000803C09F4A7C0883C09F4A4C0883B09F4D1
:100A20008AC0AAC080912E0210C09091300280919D
:100A30002F02981770F5E091300281E08E0F8093BD
:100A40003002F0E0E35FFD4F80818093BB0085ECD6
:100A500086C0809331028EC0E091300281E08E0F1B
:100A6000809330028091BB00F0E0E35FFD4F808314
:100A70009091300280912F026EC0E091300281E0AF
:100A80008E0F809330028091BB00F0E0E35FFD4F5A
:100A900080838091320281116DC081E080932D02AC
:100AA00084EA61C083E08093330210929D02CFCF2D
:100AB00080919D02803208F051C0E0919D0281E05A
:100AC0008E0F80939D028091BB00F0E0E358FD4FB4
:100AD0008083BDCF85EC8093BC001092330280915F
:100AE0009D02803230F4E0919D02F0E0E358FD4F2A
:100AF000108260919D0270E0E091E601F091E701C3
:100B00008DE792E0099510929D0236C084E08093B3
:100B1000330210927C0210927B02E091E801F09186
:100B2000E901099580917B02811105C081E08093E4
:100B30007B0210925B02E0917C0281E08E0F809339
:100B40007C02F0E0E55AFD4F80818093BB009091DC
:100B50007C0280917B02981708F479CF85E8809316
:100B6000BC000AC085EC8093BC001092330204C024
:100B7000109231020E942801FF91EF91BF91AF9135
:100B80009F918F917F916F915F914F913F912F91A5
:100B90000F900FBE0F901F9018958F929F92AF925B
:100BA000BF92CF92DF92EF92FF926B017C014901DD
:100BB0005A019B01AC010E948311811161C0A50102
:100BC0009401C501B4010E948311811159C0E091C3
:100BD000CF03E23008F052C0E150F0E0E454FC4FA3
:100BE000848980680E944C0680910001882381F0EE
:100BF00060E871E08CEB93E00E94270A22E0B701E5
:100C0000A6018CEB93E00E94410967E871E00FC0F8
:100C10006EE871E08CEB93E00E94270A22E0B501B8
:100C2000A4018CEB93E00E94410965E971E08CEB33
:100C300093E00E94270A67E971E087EA92E00E9448
:100C4000270A22E0B501A40187EA92E00E94410947
:100C500064EA71E087EA92E00E94270A68EA71E09C
:100C600087EA92E00E94270A22E0B701A60187EAFC
:100C700092E00E94410986EB91E004C0E1E0ADCF33
:100C80008AEB91E0FF90EF90DF90CF90BF90AF9014
:100C90009F908F900C94F80640E0682F8CEB93E0C7
:100CA0000C944604CF93DF93823028F09091CB03CD
:100CB00098609093CB038093CF031092D00380E48D
:100CC0008093D10380E18093D20380E58093D303A6
:100CD00061E08091C0030E9410038091C1038F3FA7
:100CE00019F061E00E94100361E08091C2030E944C
:100CF0001003CCEBD3E09E012C5B33408091CB03FF
:100D000084FD03C084E090E002C088E090E021967A
:100D1000281739072CF461E08E810E941003EBCF75
:100D20008BE39DE00197F1F760E08091C0030E94A2
:100D3000AD0260E08091C2030E94AD028091C103C8
:100D40008F3F19F060E00E94AD028091CB0384FDDB
:100D500020C063E08CEB93E00E941904CBE4D6E45E
:100D6000CE010197F1F763E08CEB93E00E94190448
:100D70002197F1F763E08CEB93E00E94190483E57F
:100D800092E00197F1F762E08CEB93E00E94190486
:100D900015C080620E944C068BE496E40197F1F73F
:100DA0008091CB0380620E944C0683E592E001971C
:100DB000F1F78091CB0380620E944C068091CB03B7
:100DC00080620E944C0684E08093CC038CE00E94F9
:100DD0004C0681E00E944C068BE39FE10197F1F7FE
:100DE00082E08093CD0386E0DF91CF910C944C0696
:100DF000CF93DF93BC0187EA92E00E94530AEC0193
:100E000061E471E087EA92E00E94530A8C0F9D1F13
:100E1000DF91CF910895E7EAF2E0A089B18982E0FD
:100E20008C93A485B5851C92A685B7858FEC8C9391
:100E3000108EA489B58986E08C93A289B3898C91A0
:100E400080618C93A289B3898C9188608C93A289EC
:100E5000B3898C9180688C930288F389E02D80811E
:100E60008F7D808308958F929F92AF92BF92CF9291
:100E7000DF92EF92FF920F931F93CF93DF93CDB743
:100E8000DEB7C054D1400FB6F894DEBF0FBECDBF61
:100E90008C010E948603F801C184D284E384F48427
:100EA0009B01AC012C193D094E095F0969017A01CA
:100EB00030EDC31637E0D306E104F10410F4818964
:100EC000C2C0F80161877287838794871482138276
:100ED00012821182108262E085810E94100361E01B
:100EE00070E080E090E00E944C0361E0F8018581B1
:100EF0000E94100360E0F80185810E94AD02F801B4
:100F000086818551823028F48BE291E10197F1F7D7
:100F100006C064E170E080E090E00E944C0362E073
:100F2000F80185810E941003F801828990E08230E7
:100F3000910538F0880F991F880F991F0597019721
:100F4000F1F7F89460E0C8010E94DC036F3F7F4F27
:100F50008F4F9F4F21F4F801118A789445C061E0CA
:100F6000C8010E94DC036F3F7F4F8F4F9F4F99F363
:100F70009E012F5F3F4F79015E013FEBA31A3EEFC9
:100F8000B30A670160E0C8010E94DC03F6016083D8
:100F900071838283938361E0C8010E94DC03F601C0
:100FA0006483758386839783F8E0CF0ED11CCA14BF
:100FB000DB0441F7789420E030E0F70180809180F5
:100FC000A280B3804481558166817781FFEF8F16BF
:100FD0009F06AF06BF0631F04F3F8FEF58076807F7
:100FE000780721F4F801118A80E02DC0F90183E02F
:100FF000F595E7958A95E1F7E00FF11F8081880F5D
:1010000084169506A606B70608F4816080832F5FD4
:101010003F4FF8E0EF0EF11C2832310571F6F80170
:10102000248130E04081818190E0840F911D4281D4
:10103000840F911D4381840F911D9927281739072B
:1010400089F681E0818BC05CDE4F0FB6F894DEBF7D
:101050000FBECDBFDF91CF911F910F91FF90EF9009
:10106000DF90CF90BF90AF909F908F900895CF92D8
:10107000DF92EF92FF92CF93DF93EC010E94330750
:10108000882399F18E818B3080F18D3098F08551D5
:10109000823058F56881798176276727762780E046
:1010A00090E00E942F0F2DEC3CEC4CEC5DE30E9495
:1010B000900F1FC0698170E080E090E00E94310FC6
:1010C0002DEC3CEC4CEC5DE30E94900F6B017C013D
:1010D000688170E080E090E00E94310F9B01AC01DC
:1010E000C701B6010E94711004C060E070E080EC9E
:1010F0009FE7DF91CF91FF90EF90DF90CF90089521
:10110000CF92DF92EF92FF921F93CF93DF93EC0188
:101110008E818C3009F442C018F48B30C1F05CC071
:101120008551823008F058C01A81612F6F7770E0C6
:10113000762F66278B81682B80E090E00E942F0F2E
:101140002DEC3CEC4CEC5DE30E94900F41C06A81B9
:1011500070E080E090E00E942F0F6B017C01CB815A
:10116000C7FF0AC09B01AC0160E070E080E89FEB24
:101170000E9470106B017C016C2F6F7070E080E03A
:1011800090E00E94310F2DEC3CEC4CEC5DE30E94B2
:10119000900FA70196010E94711022C01A81612F41
:1011A00070E080E090E00E942F0F6B017C016B816A
:1011B0006F7070E080E090E00E94310F2DEC3CEC0D
:1011C0004CEC5DE30E94900FA70196010E94711004
:1011D00017FF06C0905804C060E070E080EC9FE705
:1011E000DF91CF911F91FF90EF90DF90CF90089506
:1011F0008F929F92AF92BF92EF92FF920F931F93A5
:10120000CF93DF93CDB7DEB7A1970FB6F894DEBFCB
:101210000FBECDBF7C01FA01CB0119A2223008F428
:101220002AE08E010F5D1F4F822E912CA12CB12C34
:10123000BF01A50194010E944E10F901CA0101509D
:1012400011096A3014F4605D01C0695CD8016C93C7
:10125000232B242B252B61F7B801C7010E94530AC9
:10126000A1960FB6F894DEBF0FBECDBFDF91CF9130
:101270001F910F91FF90EF90BF90AF909F908F9034
:1012800008957F928F929F92AF92BF92CF92DF92FA
:10129000EF92FF920F931F93CF93DF938C016A011C
:1012A0007B01722E9A01AB01C701B6010E94831126
:1012B000882319F069ED71E027C046015701E894D1
:1012C000B7F82FEF3FEF4FE75FE7C501B4010E948A
:1012D000831181110DC02FEF3FEF4FE75FE7C5018D
:1012E000B4010E942A0F18161CF46DED71E00CC0B9
:1012F0002FEF3FEF4FE75FE4C701B6010E947E1179
:10130000181694F461EE71E0C801DF91CF911F913E
:101310000F91FF90EF90DF90CF90BF90AF909F9094
:101320008F907F900C94530A2FEF3FEF4FE75FECC5
:10133000C701B6010E942A0F87FDE4CF20E030E00C
:10134000A901C701B6010E942A0F87FF0FC0D8016B
:10135000ED91FC910190F081E02D6DE2C8010995BD
:10136000EC01F7FAF094F7F8F09402C0C0E0D0E096
:10137000B12C60E070E080E09FE37B1441F020E05E
:1013800030E040E251E40E94DD10B394F6CFA701B3
:1013900096010E9471106B017C010E944F114B015C
:1013A0005C012AE0AB01BC01C8010E94F808C80F2B
:1013B000D91F7720E9F1C501B4010E942F0F9B01CD
:1013C000AC01C701B6010E9470106B017C01D8010D
:1013D000ED91FC910190F081E02D6EE2C80109953C
:1013E000C80FD91F20E030E040E251E4C701B60148
:1013F0000E94900F4B015C010E944F116B01E12C88
:10140000F12C2AE0B701A601C8010E94F808C80F14
:10141000D91FC701B6010E942F0F9B01AC01C50166
:10142000B4010E9470106B017C017A947110DACFC4
:10143000CE01DF91CF911F910F91FF90EF90DF9040
:10144000CF90BF90AF909F908F907F9008950C9415
:10145000530ACF92DF92EF92FF920F931F93CF9395
:10146000DF936C017A018B01C0E0D0E0CE15DF057F
:1014700081F0D8016D918D01D601ED91FC91019023
:10148000F081E02DC6010995892B11F02196EECF50
:101490007E01C701DF91CF911F910F91FF90EF90D7
:1014A000DF90CF9008956115710579F0FB010190EF
:1014B0000020E9F73197AF01461B570BDC01ED9196
:1014C000FC910280F381E02D099480E090E0089582
:1014D000CF93DF9300D000D0CDB7DEB7789484B53A
:1014E000826084BD84B5816084BD85B5826085BD20
:1014F00085B5816085BD80916E00816080936E00AE
:10150000109281008091810082608093810080919F
:101510008100816080938100809180008160809350
:1015200080008091B10084608093B1008091B00010
:1015300081608093B00080917A00846080937A000B
:1015400080917A00826080937A0080917A00816035
:1015500080937A0080917A00806880937A0010925C
:10156000C100109286031092870310928803109294
:101570008903109246031092470310924803109279
:1015800049030E9486036B017C014B015C0128EB3F
:10159000820E2BE0921EA11CB11C0E9486036C15CA
:1015A0007D058E059F0528F086169706A806B906C4
:1015B000A0F760ED77E080E090E00E944C030E948D
:1015C0000B070E9486036093460370934703809342
:1015D00048039093490362E371E087EA92E00E9436
:1015E000270A0E9486036B017C014B015C013AE0F3
:1015F000830E911CA11CB11C0E9486036C157D05F5
:101600008E059F0528F086169706A806B906A0F74E
:1016100041E040935A030E940B071092350210924A
:1016200034021092EB0110920C021092330251E03E
:101630005093320210922D0261E082E10E94AD02CD
:1016400061E083E10E94AD028091B9008E7F8093BA
:10165000B9008091B9008D7F8093B90088E48093B0
:10166000B80085E48093BC008AE591E09093E9019D
:101670008093E8018BE591E09093E7018093E60188
:1016800062E08091AE030E9410030E948603DC0199
:10169000CB01805D9740A109B1098093B20390937B
:1016A000B303A093B403B093B50387E38093BB0364
:1016B00062E080919B030E9410030E948603DC017C
:1016C000CB01805D9740A109B10980939F0390935E
:1016D000A003A093A103B093A20397E39093A80360
:1016E00061E08BE00E94100361E08CE00E94100337
:1016F00061E08AE00E94100360E08CE00E94AD028D
:1017000060E08BE00E94AD0261E08AE00E94AD02E1
:1017100084E491E00E94F80682E00E945206E1E033
:101720008091CF038111E0E0E195F0E0E454FC4FBB
:10173000848980680E944C066BE471E08CEB93E036
:101740000E94270A33243A9405EE76E0272E0E9461
:101750008603672B682B692B41F40E948603623055
:1017600071058105910508F4F6C00E948603C090BA
:101770005702D0905802E0905902F0905A026C152E
:101780007D058E059F0540F46093570270935802C3
:101790008093590290935A02C0905702D0905802F9
:1017A000E0905902F0905A029B01AC012C193D09BE
:1017B0004E095F0969017A013AEFC316D104E104C9
:1017C000F10408F4C8C060935702709358028093E4
:1017D000590290935A0284EF91E0A0E0B0E0809328
:1017E000520390935303A0935403B0935503109264
:1017F0005603109257031092580310925903809188
:101800004A0390914B03A0914C03B0914D038093F8
:101810004E0390934F03A0935003B09351030E9443
:10182000860360934A0370934B0380934C03909319
:101830004D030E9486036093460370934703809391
:101840004803909349030E9486036B017C016CE579
:1018500071E087EA92E00E94270A2AE041E050E026
:1018600060E070E087EA92E00E94F80863E671E0C9
:1018700087EA92E00E94270A2AE0B701A60187EAD8
:1018800092E00E94F80865E671E087EA92E00E9423
:10189000270A80914A0390914B03A0914C03B09189
:1018A0004D03B701A601481B590B6A0B7B0B2AE0BD
:1018B00087EA92E00E94F80865E671E087EA92E024
:1018C0000E94270A40914A0350914B0360914C03B8
:1018D00070914D0380914E0390914F03A09150035E
:1018E000B0915103481B590B6A0B7B0B2AE087EA26
:1018F00092E00E94F80867E671E087EA92E00E94B1
:10190000270A0E948603AB01BC012AE087EA92E025
:101910000E94F80889E691E00E94F8060E9486037A
:101920006B017C014B015C0195E0890E911CA11CAF
:10193000B11C0E9486036C157D058E059F0508F07D
:1019400088C10E94860360934A0370934B0380937F
:101950004C0390934D0386E993E00E94330788235C
:1019600039F086E993E00E9480086B017C0106C093
:10197000C12CD12C60ECE62E6FE7F62E86E993E0C1
:101980000E94370869837A838B839C8389EA93E07A
:101990000E943307882339F089EA93E00E94800887
:1019A0004B015C0106C0812C912C50ECA52E5FE709
:1019B000B52E89EA93E00E9437082B013C01E1E053
:1019C0008091CF038111E0E0E195F0E0E454FC4F19
:1019D000848980680E944C0680910101882359F017
:1019E0006BE471E08CEB93E00E94270AA301920163
:1019F000C501B4010CC060E771E08CEB93E00E947C
:101A0000270A29813A814B815C81C701B6010E9476
:101A1000CD05A1E0A093EA01B8E6B093560210927A
:101A2000EB0110920C0260E08AE893E00E94B5019D
:101A300090910C02913208F043C0809133028111E1
:101A4000FCCF22E02093330231E030933202309217
:101A500031021092300290932F02ACEEB1E0EDE033
:101A6000F2E0981721F02D9121938F5FFACF109219
:101A70002E0280912E02806D80932E0280912D0285
:101A8000813071F410922D0280912E028093BB0060
:101A90008091BC0083FDF8CF45EC4093BC0002C0B0
:101AA0000093BC00809133028230E1F380913102D7
:101AB0008F3F31F080913102803211F080913102FC
:101AC0001092EB0110920C021092EA018091330205
:101AD0008111FCCF51E05093330250933202309287
:101AE00031021092300220922F0250932E028091E8
:101AF0002E02806D80932E0280912D02813071F430
:101B000010922D0280912E028093BB008091BC0028
:101B100083FDF8CF85EC8093BC0002C00093BC002D
:101B2000809133028130E1F380913002873018F4E4
:101B30009091300201C097E0EDE0F2E0A6E3B2E060
:101B400080E0891721F021912D938F5FFACF1092B9
:101B50003502809334028AE893E00E946C018AE89F
:101B600093E00E946C019C01332794E03595279502
:101B70009A95E1F7182FAAEFA29F100D11248AE879
:101B800093E00E946C019C01332744E03595279532
:101B90004A95E1F7B82F4AEF429FB00D1124B9835F
:101BA0008AE893E00E946C018AE893E00E946C014D
:101BB0008AE893E00E946C018AE893E00E946C013D
:101BC0005981593031F460E08CE00E94AD0260E050
:101BD0000AC08981853119F41E3181F441C099818F
:101BE000943119F461E08BE03DC0A981AA3021F065
:101BF000B981BD3009F082C01130B9F180E4809321
:101C00007C0080917A00806480937A0080917A00D1
:101C100086FDFCCF809178002091790090E0922B96
:101C20009C0122533109273B334080F48A3F9105C0
:101C3000F4F1823C51E095070CF443C08A38A2E0ED
:101C40009A0744F1823593400CF444C00E94F90095
:101C50007ECD86169706A806B90608F06ACE71CE24
:101C600061E08CE00E94AD02C9CF60E08AE00E9492
:101C7000AD0260E87EE380E090E00E944C0361E00A
:101C80008AE00E94AD0260E771E181E090E00E948D
:101C90004C03B4CF6CE271E080E090E00E944C0312
:101CA00068E771E08CEB93E00E94270ACFCF6CE2EB
:101CB00071E080E090E00E944C0321E0209300015D
:101CC000C5CF6CE271E080E090E00E944C0310927E
:101CD0000001BCCF6CE271E080E090E00E944C0318
:101CE00081E00E944C068BE39FE10197F1F7809120
:101CF000010131E0832780930101A8CF4981403160
:101D000009F47ACF463109F477CF78CFE7EAF2E0E9
:101D10001382128288EE93E0A0E0B0E08483958382
:101D2000A683B78326E031E03183208325EC30E0C1
:101D30003587248724EC30E03787268720EC30E095
:101D4000318B208B21EC30E0338B228B22EC30E086
:101D5000358B248B26EC30E0378B268B118E128E40
:101D6000138E148EE4E4F3E0168217821086118637
:101D7000128613861486158616861786108A118A8F
:101D8000128A138A148A158AEAE8F3E0138212820F
:101D900084839583A683B78388E191E091838083D0
:101DA000ECEBF3E0138212828AE291E0918380836C
:101DB00088E084838FEF858389E0868384E087834E
:101DC00085E0808786E0818787E082871386148696
:101DD00015861686178681E00E945206A9EAB3E0AE
:101DE00082E015968C93159786E116968C9316973C
:101DF000E0EBF0E0E4911796EC931797ECE9F0E054
:101E0000E4911896EC93189740E85EE360E070E088
:101E10001D964D935D936D937C935097A6E9B3E027
:101E200093E015969C93159716968C931697E1EB75
:101E3000F0E0E4911796EC931797EDE9F0E0E49168
:101E40001896EC9318971D964D935D936D937C9324
:101E5000509708950E946C0F08F481E00895E8946B
:101E600009C097FB3EF490958095709561957F4FE2
:101E70008F4F9F4F9923A9F0F92F96E9BB27939590
:101E8000F695879577956795B795F111F8CFFAF4A0
:101E9000BB0F11F460FF1BC06F5F7F4F8F4F9F4FD1
:101EA00016C0882311F096E911C0772321F09EE82F
:101EB000872F762F05C0662371F096E8862F70E095
:101EC00060E02AF09A95660F771F881FDAF7880F6F
:101ED0009695879597F90895990F0008550FAA0BC5
:101EE000E0E8FEEF16161706E807F907C0F012162D
:101EF0001306E407F50798F0621B730B840B950B30
:101F000039F40A2661F0232B242B252B21F4089584
:101F10000A2609F4A140A6958FEF811D811D089521
:101F20000E94A30F0C9414100E94061038F00E9417
:101F30000D1020F0952311F00C94FD0F0C9403105C
:101F400011240C9448100E94251070F3959FC1F342
:101F5000950F50E0551F629FF001729FBB27F00D57
:101F6000B11D639FAA27F00DB11DAA1F649F6627AC
:101F7000B00DA11D661F829F2227B00DA11D621FFB
:101F8000739FB00DA11D621F839FA00D611D221FB5
:101F9000749F3327A00D611D231F849F600D211D99
:101FA000822F762F6A2F11249F5750409AF0F1F01C
:101FB00088234AF0EE0FFF1FBB1F661F771F881F85
:101FC00091505040A9F79E3F510580F00C94FD0FB1
:101FD0000C9448105F3FE4F3983ED4F386957795D0
:101FE0006795B795F795E7959F5FC1F7FE2B880F2B
:101FF000911D9695879597F9089597F99F6780E8C1
:1020000070E060E008959FEF80EC089500240A944A
:102010001616170618060906089500240A941216C3
:102020001306140605060895092E0394000C11F4F6
:10203000882352F0BB0F40F4BF2B11F460FF04C0A3
:102040006F5F7F4F8F4F9F4F089557FD9058440FFC
:10205000551F59F05F3F71F04795880F97FB991F07
:1020600061F09F3F79F087950895121613061406C4
:10207000551FF2CF4695F1DF08C016161706180651
:10208000991FF1CF86957105610508940895E8942C
:10209000BB2766277727CB0197F90895A1E21A2E6F
:1020A000AA1BBB1BFD010DC0AA1FBB1FEE1FFF1FFC
:1020B000A217B307E407F50720F0A21BB30BE40B4C
:1020C000F50B661F771F881F991F1A9469F7609593
:1020D0007095809590959B01AC01BD01CF0108954D
:1020E0005058BB27AA270E9488100C9414100E94F5
:1020F000061038F00E940D1020F039F49F3F19F4BB
:1021000026F40C9403100EF4E095E7FB0C94FD0FFD
:10211000E92F0E94251058F3BA1762077307840746
:10212000950720F079F4A6F50C9447100EF4E0958D
:102130000B2EBA2FA02D0B01B90190010C01CA0181
:10214000A0011124FF27591B99F0593F50F4503E2C
:1021500068F11A16F040A22F232F342F4427585F1E
:10216000F3CF469537952795A795F0405395C9F736
:102170007EF41F16BA0B620B730B840BBAF09150EE
:10218000A1F0FF0FBB1F661F771F881FC2F70EC08D
:10219000BA0F621F731F841F48F487957795679560
:1021A000B795F7959E3F08F0B0CF9395880F08F04C
:1021B0009927EE0F9795879508950E94F1100C943A
:1021C00014100E940D1058F00E94061040F029F4DF
:1021D0005F3F29F00C94FD0F51110C9448100C94A2
:1021E00003100E94251068F39923B1F3552391F34E
:1021F000951B550BBB27AA2762177307840738F076
:102200009F5F5F4F220F331F441FAA1FA9F335D0D2
:102210000E2E3AF0E0E832D091505040E695001C86
:10222000CAF72BD0FE2F29D0660F771F881FBB1F40
:10223000261737074807AB07B0E809F0BB0B802D1E
:10224000BF01FF2793585F4F3AF09E3F510578F04A
:102250000C94FD0F0C9448105F3FE4F3983ED4F3C8
:10226000869577956795B795F7959F5FC9F7880F1E
:10227000911D9695879597F90895E1E0660F771F70
:10228000881FBB1F621773078407BA0720F0621B01
:10229000730B840BBA0BEE1F88F7E09508950E942C
:1022A0002D1088F09F5798F0B92F9927B751B0F0AB
:1022B000E1F0660F771F881F991F1AF0BA95C9F7CA
:1022C00014C0B13091F00E944710B1E008950C9411
:1022D0004710672F782F8827B85F39F0B93FCCF3C4
:1022E000869577956795B395D9F73EF49095809547
:1022F000709561957F4F8F4F9F4F08950E946C0F8F
:1023000008F48FEF08950E946C0F880B990B0895C5
:10231000EE0FFF1F0590F491E02D099481E090E00D
:0A232000F8940C949311F894FFCF89
:10232A000101000000003E02290ABC008B02ED00F8
:10233A00CB00DF0000000000B5018801E5015C0167
:10234A0080016C015D01000000009904290AE50181
:10235A00E401564D4450565F317C315F564D44502E
:10236A00560D0A0053746172743A0047656B6F6EBA
:10237A0079206F727A6573696F6E6500564D4450A5
:10238A00455F003A323A007C005F564D44504500A2
:10239A0046656C73756D61004C45465420202000DB
:1023AA0054656D703A20002073742E2043005769DB
:1023BA006C673A2000250057696C676F746E6F73FB
:1023CA00633A20002025200054656D70657261749F
:1023DA007572613A2000202A4300426C6164206FC2
:1023EA0064637A7974752064616E796368207A20EF
:1023FA00637A756A6E696B61006E616E00696E66FA
:06240A00006F7666000081
:107E0000112484B714BE81FFF0D085E080938100F7
:107E100082E08093C00088E18093C10086E0809377
:107E2000C20080E18093C4008EE0C9D0259A86E02C
:107E300020E33CEF91E0309385002093840096BBD3
:107E4000B09BFECF1D9AA8958150A9F7CC24DD24C4
:107E500088248394B5E0AB2EA1E19A2EF3E0BF2EE7
:107E6000A2D0813461F49FD0082FAFD0023811F036
:107E7000013811F484E001C083E08DD089C08234E0
:107E800011F484E103C0853419F485E0A6D080C0E4
:107E9000853579F488D0E82EFF2485D0082F10E0AE
:107EA000102F00270E291F29000F111F8ED06801E7
:107EB0006FC0863521F484E090D080E0DECF843638
:107EC00009F040C070D06FD0082F6DD080E0C81688
:107ED00080E7D80618F4F601B7BEE895C0E0D1E017
:107EE00062D089930C17E1F7F0E0CF16F0E7DF06D8
:107EF00018F0F601B7BEE89568D007B600FCFDCFD4
:107F0000A601A0E0B1E02C9130E011968C91119780
:107F100090E0982F8827822B932B1296FA010C0160
:107F200087BEE89511244E5F5F4FF1E0A038BF0790
:107F300051F7F601A7BEE89507B600FCFDCF97BE46
:107F4000E89526C08437B1F42ED02DD0F82E2BD052
:107F50003CD0F601EF2C8F010F5F1F4F84911BD097
:107F6000EA94F801C1F70894C11CD11CFA94CF0C13
:107F7000D11C0EC0853739F428D08EE10CD085E9AC
:107F80000AD08FE07ACF813511F488E018D01DD067
:107F900080E101D065CF982F8091C00085FFFCCF94
:107FA0009093C60008958091C00087FFFCCF809118
:107FB000C00084FD01C0A8958091C6000895E0E648
:107FC000F0E098E1908380830895EDDF803219F02E
:107FD00088E0F5DFFFCF84E1DECF1F93182FE3DFCA
:107FE0001150E9F7F2DF1F91089580E0E8DFEE27F6
:047FF000FF270994CA
:027FFE00040479
:0400000300007E007B
:00000001FF